:020000040800F2
:10000000683500209D010008592500085922000884
:100010003925000895060008B330000800000000EC
:10002000000000000000000000000000412A00085D
:10003000C507000800000000152A0008552A00081E
:10004000B7010008B7010008B7010008B7010008B0
:10005000B7010008B7010008B7010008B7010008A0
:10006000B7010008B7010008B7010008B701000890
:10007000B7010008FD060008B701000809070008DD
:1000800015070008B7010008B7010008B70100080C
:10009000B7010008B7010008B7010008B701000860
:1000A000B7010008B7010008B7010008B701000850
:1000B000B7010008B7010008B7010008B701000840
:1000C000B7010008B7010008B7010008B701000830
:1000D000B7010008B7010008B7010008B701000820
:1000E000B7010008B7010008B7010008B701000810
:1000F000B7010008B7010008B7010008B701000800
:10010000B7010008B7010008B7010008B7010008EF
:10011000B7010008B7010008B7010008B7010008DF
:10012000B7010008B7010008B7010008B7010008CF
:10013000B7010008B7010008B7010008B7010008BF
:10014000B7010008B7010008B7010008B7010008AF
:10015000B7010008B7010008B7010008B70100089F
:10016000B7010008B7010008B7010008B70100088F
:10017000B7010008B7010008B7010008000000003F
:10018000B7010008B7010008DFF80CD000F09AF8BA
:10019000004800472F310008683500200648804796
:1001A00006480047FEE7FEE7FEE7FEE7FEE7FEE75C
:1001B000FEE7FEE7FEE7FEE7152B000889010008D1
:1001C0002DE9F05F0546002092469B46884606468C
:1001D000814640241BE0284641464746224600F01F
:1001E00060F853465A46C01A914110D3114618463A
:1001F000224600F047F82D1A67EB01084F462246C9
:100200000120002100F03EF817EB00094E41201EAE
:10021000A4F10104DFDC484631462A464346BDE8E6
:10022000F09F40EA01039B0703D009E008C9121FB1
:1002300008C0042AFAD203E011F8013B00F8013BA0
:10024000521EF9D27047D2B201E000F8012B491ECC
:10025000FBD270470022F6E710B513460A46044663
:100260001946FFF7F0FF204610BD30B504460020C8
:10027000034600E05B1C934203D2E05CCD5C401B74
:10028000F8D030BD202A04DB203A00FA02F1002029
:1002900070479140C2F1200320FA03F319439040C4
:1002A0007047202A04DB203A21FA02F0002170472F
:1002B00021FA02F3D040C2F12002914008431946CE
:1002C00070470000064C074D06E0E06840F001036F
:1002D00094E8070098471034AC42F6D3FFF758FF74
:1002E000743100089431000870B586B000F05EF8F3
:1002F00005460024684600F07FF94FF47A76A0B1F5
:100300000198801C02D00198001D0ED1012400F03C
:1003100061F900F0BDF830B900F04AF9304600F05C
:1003200071FD01F09BFF00F031F9254309D100F088
:100330000FF830B100F04EF9304600F063FD01F0E7
:100340008DFF0CB900F046F902F0ACFA06B070BDB2
:10035000074910B508684C6802F073FB28B12046C5
:1003600002F05EFB08B1012010BD002010BD0000AE
:1003700000C000080B4A10B5A0F1080191420ED24E
:10038000B0F5142F0BD8084908684C6802F059FBE7
:1003900028B1204602F044FB08B1012010BD002026
:1003A00010BD0000F9FE050000000A0838B50F482E
:1003B0000025016841F080510160006800F0805024
:1003C000009001F03BF80A490120086009480468E0
:1003D0000560BFF34F8FBFF36F8F01F023F806481E
:1003E000844201D1012038BD002038BD4038024090
:1003F0003C0E474250280040544E415010B586B044
:1004000014216846FFF726FF0024059400F0A0FDA4
:1004100010B1012006B010BD0949F3200860022088
:1004200004900920029003200390009405A96846D7
:1004300000F0FAFC044600F043FD2046EAE7000025
:100440000C3C024010B511B1FFF70FFF08B10020BE
:1004500010BD012010BD000070B5064614460D46C3
:10046000800704D11DB114B100F072FD08B1012064
:1004700070BD0649F320086022462946304600F048
:1004800001FB044600F01CFD204670BD0C3C024000
:100490002DE9F0478CB014216846FFF7DBFE4FF0E2
:1004A00000084446012605A8CDF82C8000F0A4F8E9
:1004B00000285DD0DFF8C8900899484600F0FEF8A3
:1004C0000999884254D10898FFF754FF00284FD06B
:1004D0000698001D05D0751F284600F0B7F8E8BB48
:1004E00006952849089801F1010A4718504600F07E
:1004F00079FA0546384600F075FA074600F028FDFF
:1005000060BB2149F320086002200490781B401C46
:100510000390CDF8008002950BA9684600F084FC9A
:100520004FF4806540BB0CE0021BAA4200D92A466A
:10053000174604EB090104EB0A0000F0A3FAD8B94E
:100540003C440898A042EFD80146504600F0B6F867
:100550000999884210D1FFF7FBFE00E008E058B18E
:10056000002600F0ADFC6FF0070000F06FF828B136
:1005700001200CB0BDE8F08700F0A2FC3046F8E79F
:1005800000000A08FFBF00080C3C0240064882B089
:100590000188ADF8001080788DF8020000980349BA
:1005A00002B001F091BE00003000002008020020DF
:1005B000064882B0B0F80310ADF8001040798DF80D
:1005C00002000098024902B001F07EBE3000002017
:1005D00008020020064882B0B0F80910ADF80010FB
:1005E000C07A8DF802000098024902B001F06CBE9A
:1005F000300000200802002010B504001ED0182290
:100600000F49FFF70EFE0F492068884216D1606837
:10061000811C03D0011D01D008300FD1E06868B102
:10062000094988420AD8B0F5142F07D8204601F0AE
:1006300084FF6169884201D1012010BD002010BDF6
:1006400000FF0F084F54414D00FF050001B503485E
:1006500004226946FFF700FF08BD000004FF0F08F1
:1006600000B587B0094B00936FF001030DF1080C42
:1006700001938CE80700684601F05FFF059018229F
:1006800069460348FFF7E8FE07B000BD4F54414DEF
:1006900000FF0F08FEE770B506000D464FF0FF3073
:1006A00001D0002406E039B1002070BD315D00F0BA
:1006B00015F8641CAC42F9D3C04370BD70B5054653
:1006C0000E464FF0FF30002403E0295D00F006F8ED
:1006D000641CB442F9D3C04370BD00004840064AD0
:1006E0000021C30702D082EA500000E04008491C04
:1006F000C9B20829F5D370472083B8ED014800F04E
:10070000EBB90000A0000020014800F0E5B90000AE
:1007100000010020014800F0DFB900006001002066
:1007200001681823CAB2103AB2FBF3F2054B6FF31B
:100730000901032A9B5CC36500D9091D8165084630
:10074000704700005231000810B5014600208B6947
:100750008A6A4FF0C07453B1B3F5005F15D072B11F
:10076000012A0CD0022A0AD0032A09D104E01AB1C6
:10077000012A06D0022A03D1C96AC90100D5012085
:1007800010BDC96AA142FAD010BD002AF7D0012AD3
:10079000F2D0022AF3D0032AF3D010BD30B504689A
:1007A000256825F480252560046863608368402BF4
:1007B000036803D099600068C26030BD9A60006829
:1007C000C16030BD704772B6FEE70000002229B15B
:1007D00001291AD002291BD04FF440720E490B6830
:1007E00023F440730B600B6813430B600A6822F01C
:1007F00078020A600A68022303EBC00002430A6021
:10080000086840F48030086070474FF48072E5E774
:100810004FF40072E2E70000103C02401348016808
:1008200089050FD5016821F400710160016841F468
:1008300000610160016821F400610160016841F418
:1008400000710160016849050FD5016821F48061DC
:100850000160016841F480510160016821F4805118
:100860000160016841F4806101607047003C024012
:1008700008490A6822F440720A600A6842F00402D9
:100880000A600A684FF4803343EA002002430A609A
:1008900070470000103C0240064A136823F440737E
:1008A000136013681360136843F001031360017051
:1008B00070470000103C0240094910B50C6824F450
:1008C00040740C600C6844F440740C600C6844F094
:1008D00001040C600260BFF36F8F436010BD000025
:1008E000103C0240074A136823F4407313601368F6
:1008F00043F480731360136843F0010313600180B5
:1009000070470000103C0240074A136823F440730C
:100910001360136843F400731360136843F001031A
:100920001360016070470000103C024017490868DE
:10093000C206174805D5C26942F01002C2611022F2
:100940000A600A68920605D5C26942F00802C261CF
:1009500020220A600A68520605D5C26942F00402E4
:10096000C26140220A600A68120605D5C26942F0D7
:100970000202C26180220A600A68920705D5C26934
:1009800042F02002C2610220086070470C3C024025
:100990000000002070B5114904460020C86100F035
:1009A0009FFC06460E4D09E0601C07D024B100F004
:1009B00097FC801BA04201D9032070BD2868C003AA
:1009C000F2D42868C00701D001202860286810F000
:1009D000F200F2D0FFF7AAFF012070BD0000002056
:1009E0000C3C02401C49884201D2002070471B4940
:1009F000884201D2012070471949884201D2022061
:100A000070471849884201D203207047164988422E
:100A100001D2042070471549884201D20520704751
:100A20001349884201D2062070471249884201D2F8
:100A3000072070471049884201D2082070470F49AB
:100A4000884201D2092070470D49884201D20A200C
:100A500070470B207047000000400008008000082D
:100A600000C000080000010800000208000004089F
:100A7000000006080000080800000A0800000C0832
:100A800000000E082DE9F8430446002516460F46DF
:100A9000800718D1BFB1B6B14FF0FF39B54218D2B7
:100AA000701BCDF80090042800D304208046024635
:100AB00079196846FFF7B5FB002321460220009A0A
:100AC00000F008FA10B10120BDE8F8834544241D68
:100AD000E4E70020F8E700002DE9F84304464FF072
:100AE0000009CDF8009063484FF41651A56D0068D9
:100AF000B0FBF1F72E6894F85C10082000FA01F1C1
:100B000031420FD021680A6852070BD50A6822F0DB
:100B100004020A6094F85C108840A860606D40F0A0
:100B20000100606594F85C104FF0010808FA01F0CC
:100B3000304208D021684969090604D5A860606D73
:100B400040F00200606594F85C1004208840304258
:100B500008D021680968890704D5A860606D40F055
:100B60000400606594F85C1010208840304218D072
:100B700021680968090714D5A8602068016849033D
:100B800004D50068000308D5A16C07E00168C90519
:100B900003D4016821F008010160216C09B12046ED
:100BA000884794F85C1020208840304231D021687A
:100BB0000968C9062DD5A86094F835000528206875
:100BC000016806D0490347D5006800031DD4616C55
:100BD0001CE021F0160101602068416921F08001CC
:100BE0004161206C08B9A06C20B12068016821F037
:100BF0000801016094F85C103F208840A86084F8E8
:100C0000358084F83490216D1FE0E16B09B12046F6
:100C10008847606D00282BD0606DC00714D0052078
:100C200084F835002068016821F001010160009816
:100C3000401C0090B84203D820680068C007F6D175
:100C400084F8358084F83490E16C002910D001B02C
:100C50002046BDE8F04308470168C905D5D40168BE
:100C600021F01001016084F8358084F83490CCE7DD
:100C7000BDE8F8832C0000202DE9F041044600F087
:100C80002FFB06465CB1022084F83500002584F86D
:100C900034502068016821F0010101600DE001205D
:100CA000BDE8F08100F01CFB801B052805D9202041
:100CB0006065032084F83500F2E720680068C0070B
:100CC000F0D12268116820480140D4E9010318439B
:100CD000D4E903363343184363691843A3691843BF
:100CE000E3691843236A18430843616A042903D15E
:100CF000D4E90B1319430843106020684069666A01
:100D000020F0070130460E43012704280CD1A06AC9
:100D10000643E06A40B12046FFF716FD20B14020AF
:100D2000606584F83570BAE7206846612046FFF7B1
:100D3000F7FC94F85C203F2191408160656584F860
:100D400035700020ACE700003F8010F02DE9F04145
:100D50000446866D90F83400002501280DD001204E
:100D600084F8340094F835700020012F07D084F8FF
:100D7000340002252846BDE8F0810220FBE7022767
:100D800084F8357060652046FFF708FD94F85C1024
:100D90003F208840B0602068016841F01601016082
:100DA000206C20B12068016841F0080101602068D2
:100DB000016841F001010160DCE700000E4910B557
:100DC0000C48086000200860091D0C4A0A60086091
:100DD00009490B4A10390A600860C122091D0A60DE
:100DE00008600122091D0A60086000F0C1FA0020B5
:100DF00010BD0000FFC9FEF62038024033797704A9
:100E0000FF11602270B5044600F06AFA0546601CC6
:100E100002D004480078044400F062FA401BA0426B
:100E2000FAD370BD200000202DE9F0470446224887
:100E30000F46017E01290AD00121804601764CF23D
:100E400050394846FFF7A6FD020003D02FE00220EC
:100E5000BDE8F0874FF0FF3038602068174D01285B
:100E600001D0A6681CE0207C6168FFF701FD4846C0
:100E7000FFF790FD0246286820F00400286014E087
:100E8000217C3046FFF7A2FC4846FFF783FD0200B5
:100E9000286820F07A00286001D03E6005E0761CCA
:100EA000D4E902100844B042EAD8FFF7B7FC0021A9
:100EB00088F818101046CBE700000020103C0240D4
:100EC0000348016841F000410160002070470000C4
:100ED000103C02402DE9F0471B4E05461446307E7B
:100EE0001F468946012808D0012030764CF2503840
:100EF0004046FFF74FFD18B114E00220BDE8F0872F
:100F00009DB1012D16D0022D19D022463B464846F0
:100F1000FFF7D2FC4046FFF73DFD0C490A6822F07E
:100F200001020A6000213176E8E7E1B24846FFF7A6
:100F3000B3FCEFE7A1B24846FFF7D4FCEAE721464D
:100F40004846FFF7E1FCE5E700000020103C0240C6
:100F5000074900200A68002A09DA054A054B0C3ABD
:100F60001360054B13600968002900DA01207047FF
:100F7000103C024023016745AB89EFCD2DE9F04FCE
:100F80000022DFF838B101264FF00F0906FA02F40B
:100F900001EA0403A3427DD122F003075F44D7F89E
:100FA000088895074FEA157C09FA0CFA0AEA080541
:100FB000DFF80C81404502D14FF0000832E0DFF845
:100FC0000481404502D14FF001082BE0DFF8F880A2
:100FD000404502D14FF0020824E0DFF8F0804045A0
:100FE00002D14FF003081DE0DFF8E480404502D154
:100FF0004FF0040816E0DFF8DC80404502D14FF0E6
:1010000005080FE0DFF8D080404502D14FF0060818
:1010100008E0DFF8C880404502D14FF0070801E042
:101020004FF0080808FA0CF8A84522D12C4DD5F845
:1010300000C02CEA030CC5F800C005F1040CDCF874
:1010400000509D43CCF80050254D0C35D5F800C01C
:101050002CEA030CC5F800C02D1FD5F800C02CEAFF
:10106000030CC5F800C0D7F8085825EA0A05C7F8E8
:101070000858056857000323BB409D430560D50809
:1010800000EB8505D5F820C057074FEAD76809FA65
:1010900008F700E00CE02CEA070CC5F820C0C56892
:1010A0009D43C5604568A543456084689C43846052
:1010B000521C102AFFF46AAFBDE8F08F00300140E7
:1010C000000002400004024000080240000C024000
:1010D000001002400014024000180240001C0240B0
:1010E000003C01402DE9F84FDFF8BCA100220125AA
:1010F00003264FF00F090AF1040BAAF1040E00BFFA
:101100000B6805FA02F42340A34270D10F7907F06F
:101110000307012F01D0022F16D187684FEA42083A
:1011200006FA08FC27EA0C07D1F80CC00CFA08FCF8
:101130004CEA070CC0F808C04768A7430C79C4F311
:10114000001494403C4344600C79E443A4070AD063
:10115000C4684FEA420C06FA0CF7BC438F6807FAE2
:101160000CF72743C7600C7904F00304022C12D15A
:10117000D40800EB840CDCF820405707FF0E09FA76
:1011800007F824EA0804D1F8108008FA07F848EABA
:101190000408CCF8208004684FEA420C06FA0CF7E9
:1011A000BC430F7907F0030707FA0CF727430760E2
:1011B0004C6814F4403F70D03C4C276847F480479B
:1011C0002760246822F0030704F480440094384C1C
:1011D00007EB040CDCF8084897074FEA177809FA80
:1011E00008F7BC43334FB84202D1002724E054E053
:1011F000314FB84201D101271EE0304FB84201D132
:10120000022719E02E4FB84201D1032714E02D4FD9
:10121000B84201D104270FE02B4FB84201D1052776
:101220000AE02A4FB84201D1062705E0284FB8420C
:1012300001D1072700E0082707FA08F72743CCF871
:101240000878DAF800405746D1F804C09C435FEABA
:10125000CC2C00D51C433C60DBF800405F46D1F845
:1012600004C09C435FEA8C2C00D51C433C60DEF834
:1012700000407746D1F804C09C435FEA8C3C00D51F
:101280001C433C60084F083F3C68D1F804C09C43B5
:101290005FEACC3C00D51C433C60521C102AFFF492
:1012A0002FAFBDE8F88F0000083C014044380240F1
:1012B00000300140000002400004024000080240EB
:1012C000000C0240001002400014024000180240CE
:1012D000001C02400AB1816170470904FBE700006D
:1012E00001488068704700002000002002488168A3
:1012F0000278114481607047200000200B4810B52F
:10130000016841F400710160016841F4806101608D
:10131000016841F480710160032000F071F80F2032
:1013200000F006F800F026F8002010BD003C024056
:1013300070B50D4D04464FF47A712878B1FBF0F08A
:101340000A490968B1FBF0F000F02EFB48B9102CF7
:1013500007D200222146501E00F032F800206C60B7
:1013600070BD012070BD0000200000202C00002076
:10137000704700000A4808B5016841F480410160E7
:10138000006800F4804000900548001F016841F0AB
:1013900080510160006800F08050009008BD00009E
:1013A00044380240002809DB00F01F02012191406F
:1013B0004009800000F1E020C0F8001170470000F3
:1013C000F0B40E4B1B680C46C3F30223C3F10705B0
:1013D000042D00D90425191D072901D2002300E09E
:1013E000DB1E012606FA05F1491E214099409E4068
:1013F000761E16403143F0BC01F068BE0CED00E0F3
:10140000064900F0070208684FF6FF03184040EA5B
:101410000220034A10430860704700000CED00E012
:101420000000FA05034908B5002008620248006878
:10143000009008BD00000E4200700040034908B54E
:101440000120086202480068009008BD00000E42BA
:10145000007000402DE9F0470E46050065D0DFF82A
:101460001481D8F80000F7B200F00700B04207D2AC
:1014700088F80070D8F8000000F00700B04254D19E
:1014800028683D4C810712D5400703D5206840F4F9
:10149000E05020602878000703D5206840F46040C1
:1014A00020602068A96820F0F000084320602878B8
:1014B000C0072DD0304968680839012812D00228A9
:1014C00013D0032811D00968890700292DDA216873
:1014D00021F0030101432160FFF702FF814641F241
:1014E000883A0EE009688903EFE709688901ECE7AB
:1014F000FFF7F6FEA0EB0901514502D90320BDE834
:10150000F0872068696800F00C00B0EB810FEFD124
:10151000D8F80010404601F00701B14207D9077022
:10152000006800F00700B04201D00120E7E728780A
:10153000400705D52068E96820F4E05008432060A2
:101540002878000706D52068296920F4604040EA21
:10155000C100206000F038F82168084AC1F3031187
:10156000515CC8400649086006480068FFF7E0FE85
:101570000020C4E7003C0240083802405A3100080D
:101580002C00002024000020044805490068096858
:10159000044AC1F38221515CC84070472C000020EE
:1015A000083802406A3100080448054900680968A3
:1015B000044AC1F34231515CC84070472C000020FE
:1015C000083802406A310008154810B5006810F06C
:1015D0000C02144813D01449042A0FD0082A0ED143
:1015E0000F4C241F2268236802F03F025B0207D5DC
:1015F0002068C0F38810A0FB010106E0084610BD7A
:101600002168C1F38811A1FB00010023FEF7D8FD7A
:101610002168C1F30141491C4900B0FBF1F010BD44
:10162000083802400024F40040787D012DE9F84F8D
:10163000040076D02078DFF85C93C007A9F1040598
:101640004CD009F104000168C1F38101012908D0DF
:101650000068C0F3810002280AD1D9F800004002D6
:1016600006D52868800339D560680028E1D035E0C8
:101670006068B0F5803F12D0B0F5A02F286812D076
:1016800020F480302860286820F48020286060687A
:1016900040F2DC56A8B1FFF723FE07460DE02868AC
:1016A00040F48030F2E740F480202860F7E700BF84
:1016B000FFF716FEC01BB04273D828688003F7D529
:1016C0000CE0FFF70DFE074605E000BFFFF708FE40
:1016D000C01BB042F0D828688003F7D42078DFF828
:1016E000B88280074FF0000A44D5AA48001D01685F
:1016F00011F00C0F08D00068C0F38100022811D14E
:10170000D9F8000040020DD42868800702D5E068AF
:10171000012806D12868216920F0F80040EAC100BC
:1017200018E033E1E068B8B10120C8F80000FFF725
:10173000D7FD064605E000BFFFF7D2FD801B02285B
:10174000BAD828688007F7D5286820F0F801206902
:1017500041EAC00028600DE0C8F800A0FFF7C0FD16
:10176000064604E0FFF7BCFD801B022819D8286854
:101770008007F7D42078000722D5864E8748616914
:10178000703679B101210160FFF7AAFD074604E038
:10179000FFF7A6FDC01B022803D830688007F7D5E5
:1017A0000EE088E0C0F800A0FFF79AFD074604E0CD
:1017B000FFF796FDC01B02287DD830688007F7D45C
:1017C0002078400768D5DFF8CCB100270BF13C0B3F
:1017D000DBF80000C0000BD4DBF8001041F08051B2
:1017E000CBF80010DBF80000012700F080500090DB
:1017F0006B4E3068C00510D4306840F480703060A3
:10180000FFF76EFD009005E0FFF76AFD0099401AB2
:10181000022850D83068C005F6D55E4EA0686C36F8
:1018200001280FD00528306810D020F0010030606A
:10183000306820F004003060A068B8B1FFF750FDB8
:1018400000900FE0306840F00100F4E740F0040041
:101850003060F7E7FFF744FD0099411A41F2883004
:10186000814266D830688007F4D50EE0FFF738FD76
:10187000009007E0FFF734FD0099411A41F28830EB
:10188000814256D830688007F4D42FB1DBF80010BD
:1018900021F08051CBF80010A069C8B33D49091D63
:1018A0000968C1F3810102294AD00228504607D0B5
:1018B000C8F8600000E03CE0FFF712FD04463BE0A2
:1018C0004746C8F86000FFF70BFD064605E000BF7D
:1018D000FFF706FD801B02282BD828688001F7D46B
:1018E000D4E907010843A16A2E4A490802EB0141E5
:1018F000626A41EA8211084394F82C1040EA0161BF
:10190000C9F8001001203866FFF7EAFC044606E03B
:101910003EE000BFFFF7E4FC001B022809D828685E
:101920008001F7D534E000BFFFF7DAFC001B022886
:1019300002D90320BDE8F88F28688001F4D427E09D
:101940000128F7D0D9F80000E26900F48001914243
:101950001CD1226A00F03F01914217D147F6C071B5
:10196000626A0140B1EB821F10D1A26A4FF0FF33CF
:1019700000F4403103EB5202B1EB024F06D194F870
:101980002C1000F07060B0EB016F01D00120D1E7A6
:101990000020CFE70438024000004742800E474253
:1019A000007000400000FFFF10B5401EB0F1807FC6
:1019B00001D3012010BD4FF0E02460610F216017BA
:1019C00001F084FB0020A06107202061002010BDF1
:1019D00070B590F83C20012A32D0012480F83C40B8
:1019E000022280F83D2003685A689D6822F0700644
:1019F0000A6832435A60134B02689A4214D0B2F11B
:101A0000804F11D0104B9A420ED0104B9A420BD0FF
:101A10000F4B9A4208D00F4B9A4205D00E4B9A4278
:101A200002D00E4B9A4204D1496825F08003194335
:101A3000916080F83D40002180F83C10084670BD60
:101A4000022070BD0000014000040040000800407A
:101A5000000C00400004014000400140001800401C
:101A600010B5040003D094F83D0010B107E0012048
:101A700010BD002084F83C00204600F01FF8022032
:101A800084F83D00211D206801F04CF8012084F805
:101A9000460084F83E0084F83F0084F8400084F853
:101AA000410084F8420084F8430084F8440084F83C
:101AB000450084F83D00002010BD00002DE9F84FDE
:101AC000044600682D49884255D12D4900200A68F6
:101AD00042F002020A6009682B4D01F002010091F8
:101AE00005F10C024FF480684FF400694FF4005A7E
:101AF00082E80107E8612862224968624FF02066A7
:101B0000402785E8C2002846FFF7B6F808B1FEF77F
:101B10005AFE25632562AC631B4DB346603505F163
:101B20000C010026AF6081E840071648EE612E6286
:101B300030306E62C5E9000B2846FFF79DF808B10A
:101B4000FEF741FE6562A563AC630F4D0D48C035DD
:101B500005F10C01AF6081E84007EE612E6248306C
:101B60006E62C5E9000B2846FFF786F808B1FEF75C
:101B70002AFEA562AC63BDE8F88F000000040040B7
:101B80004038024040600240A000002070B504468A
:101B900090F83C000025012817D0012684F83C600D
:101BA000022084F83D002068826822F0770222F447
:101BB0007F4282600868502838D00DDC20284FD042
:101BC00005DC90B3102811D14AE0022070BD302806
:101BD00046D040280AD13BE060282FD070280DD095
:101BE000B0F5805F03D0B0F5005F12D0012584F816
:101BF0003D60002084F83C00284670BDCB68D1E9E8
:101C00000121206801F078F82068816841F07701AF
:101C100009E0CB68D1E90121206801F06DF8206866
:101C2000816841F480418160E1E719E0CA68496850
:101C3000206801F035F95021206806E0CA6849683B
:101C4000206801F03EF96021206801F05FF8CEE7DE
:101C5000CA684968206801F023F940212068F4E748
:101C6000226801461046F0E77047000030B587B0A3
:101C7000044614216846FEF7EDFA174920688842A9
:101C800027D116480024016841F004010160016871
:101C900001F004010591016841F002010160006852
:101CA000022500F0020005904FF420700090CDE96D
:101CB000015469460A48CDE90345FFF713FA10209D
:101CC0000090CDE9015469460648CDE90345FFF788
:101CD00009FA07B030BD000000040040303802406F
:101CE000000802400004024070B5044690F83C0031
:101CF00000260D4601280FD0012084F83C006AB16F
:101D0000042A1DD0082A2FD00C2A3FD001260020FB
:101D100084F83C00304670BD022070BD206800F0A1
:101D2000FDFF2068816941F00801816120688169B7
:101D300021F004018161206881692A69114311E061
:101D4000206801F01BF82068816941F4006181611D
:101D50002068816921F480618161206881692A6934
:101D600041EA02218161D2E7206801F03DF8206854
:101D7000C16941F00801C1612068C16921F0040115
:101D8000C1612068C1692A69114311E0206801F02E
:101D90005FF82068C16941F40061C1612068C169D0
:101DA00021F48061C1612068C1692A6941EA022188
:101DB000C161ACE710B5040003D094F83D0010B148
:101DC00007E0012010BD002084F83C00204600F010
:101DD0001EF8022084F83D00211D206800F0A2FEBC
:101DE000012084F8460084F83E0084F83F0084F81F
:101DF000400084F8410084F8420084F8430084F8ED
:101E0000440084F8450084F83D00002010BD704770
:101E1000704770472DE9F04117460D0004464FF01A
:101E200000060CD0042D11D0082D16D094F84100D6
:101E3000022819D094F84100012818D07CE094F8C9
:101E40003E00022810D094F83E00F5E794F83F00D9
:101E5000022809D094F83F00EEE794F840000228E9
:101E600002D094F84000E7E70220BDE8F081002F9F
:101E700062D0002B60D04D494D4ADFF838C10220B6
:101E80004DB1042D18D0082D27D084F841000C2D19
:101E900044D0012687E084F83E00606AC163606A2E
:101EA00039460264606AC0F84CC02268606A343205
:101EB000FEF74CFF88BB21E084F83F00A06AC163B5
:101EC000A06A39460264A06AC0F84CC02268A06AC1
:101ED0003832FEF73BFF00BB15E084F84000E06AB3
:101EE000C163E06A39460264E06AC0F84CC0226807
:101EF000E06A3C32FEF72AFF78B909E02068C16841
:101F000041F400711EE02068C16841F4806119E06D
:101F10002068C16841F4006114E00DE0206BC163EA
:101F2000206B39460264206BC0F84CC02268206BDD
:101F30004032FEF70BFF08B1012096E72068C16828
:101F400041F48051C16001222946206800F052FE10
:101F500019492068194A884201D0904203D1436C44
:101F600043F4004343642068884213D0B0F1804FAB
:101F700010D0134988420DD0124988420AD0124924
:101F8000884207D0904205D01049884202D01049BB
:101F9000884204D1816801F00701062903D0016855
:101FA00041F00101016030465FE700000F2C00089E
:101FB0006D2C0008A52C0008000001400004014021
:101FC0000004004000080040000C004000400140B8
:101FD0000018004010B5040015D0242084F84100FA
:101FE0002068C16821F40051C160204600F040F82B
:101FF0000020606484F8410084F8420044F8300F07
:102000006060207410BD012010BD70B5040004D0C4
:1020100094F84100002510B106E0012070BD84F85D
:102020004050204600F03AF8242084F8410020680F
:10203000C16821F40051C160204600F07BFF206898
:10204000016921F4904101612068416921F02A0170
:1020500041612068C16841F40051C160656420207D
:1020600084F8410084F842006563002070BD0000E0
:1020700000680749884209D10648016821F010012B
:1020800001604FF4C0610448FEF778BF704700005C
:1020900000100140443802400000024010B586B0F4
:1020A000044614216846FEF7D5F814492068884292
:1020B00021D113480021026842F01002026000683A
:1020C00000F0100005900E481438026842F001023A
:1020D0000260006800F0010005904FF4C0600090BD
:1020E0000220CDE9010103200390072004906946F6
:1020F0000448FEF7F7FF06B010BD000000100140D5
:1021000044380240000002402DE9F84F044690F8A0
:1021100042009A4616460D46202802D00220BDE80D
:10212000F88FB5B1AEB100206064222184F842106E
:102130002063FFF7D5F8A6858146E685A0684FF4B1
:1021400080582027404501D1206920B12E46002526
:1021500029E00120E3E7002625E04B46002220216C
:102160002046CDF800A000F06BFF18B184F8427053
:102170000320D4E726B1A06840451AD038B108E062
:1021800020684068C0F3080025F8020B08E02069C9
:1021900078B12068406800F07F0000BF06F8010BAE
:1021A000E08D401EE085E08D0028D6D184F8427095
:1021B000B5E720684068F1E72DE9F843044690F858
:1021C0004100984616460D46202802D00220BDE860
:1021D000F88385B17EB100206064212084F841003D
:1021E000FFF77EF8A6848146E684A0682027B0F534
:1021F000805F02D003E00120E9E7206910B12E469C
:1022000000250EE000260CE08021204600F018FF9B
:10221000A8B9C6B116F8010B21684860E08C401ED1
:10222000E084E08C4B464FF00002CDF8008000289F
:10223000EAD14FF04001204600F002FF40B184F89F
:1022400041700320C3E735F8020BC0F30800E3E751
:1022500084F841700020BAE7FEE7000070B5FEF791
:1022600077F8002829D0154E3568746872B614487E
:10227000FFF7B0FEFEF7A2FD4FF0E021002008615D
:1022800048618861421E810001F1E021C1F880218E
:10229000C1F88022401C0828F5D30A4806600020B7
:1022A00080F31488BFF36F8F85F30888BFF34F8FD7
:1022B000BFF36F8F62B6A047FEE770BD00C0000895
:1022C000C001002008ED00E02DE9F04100240A25BE
:1022D000C0F3072C0326002204EB44035FEACC770B
:1022E00002EBC30702D021F8175001E021F8176074
:1022F000521CD2B2082AF1D30822C7B25FEAC77EC5
:1023000002EBC30E02D021F81E5001E021F81E603E
:10231000521CD2B2102AF1D31022C0F3074700BFDB
:102320005FEAC77E02EBC30E02D021F81E5001E027
:1023300021F81E60521CD2B2182AF1D3641CE4B2F8
:102340009F2CC8D3BDE8F0410A464FF479630421BD
:102350000148FFF75FBD000058000020114808B594
:10236000016841F4001101600068002200F40010CF
:10237000009011460D20FFF723F80D20FFF712F80B
:10238000002211460F20FFF71BF80F20FFF70AF875
:10239000002211461020FFF713F8BDE80840102076
:1023A000FFF700B830380240F0B587B01421684616
:1023B000FDF750FF21480024016841F0040101604D
:1023C000016801F004010591016841F0800101609C
:1023D000016801F080010591016841F0010101608F
:1023E000016801F001010591016841F002010160FD
:1023F0000068134E00F002004FF4005505900022D3
:1024000029463046FEF766FF0E4F0022102138465F
:10241000FEF760FF00950125CDE90154694630467D
:102420000394FEF75FFE10200090CDE90154694649
:1024300038460394FEF756FE07B0F0BD3038024030
:10244000000802400000024010B58EB0002407943E
:10245000089409940A940B941C2168460C94FDF787
:10246000F9FE2648244901600521C0E901140E2126
:10247000C0E9031480218161FFF7F2FA08B1FEF789
:10248000A2F94FF48050079007A91C48FFF77EFB84
:1024900008B1FEF798F91948FFF78CFC08B1FEF770
:1024A00092F90B940BA915480C94FFF791FA08B117
:1024B000FEF789F96020CDE9000402940022694604
:1024C0000E480494FFF710FC08B1FEF77CF90422D3
:1024D00069460A48FFF708FC08B1FEF774F90C22B8
:1024E00069460648FFF700FC08B1FEF76CF903489F
:1024F000FFF7BCFB0EB010BD0004004058000020E8
:102500000C4810B50A4901604FF4E13141600021E7
:1025100081600C22C160C0E904128161C161FFF7D2
:1025200074FD002803D0BDE81040FEF74CB910BD83
:1025300000100140C0010020FEE71FB501680091B6
:1025400081680191C1680291006903901021684679
:10255000FEF7A1F804B010BDFEE700002DE9F0473A
:1025600004468088102804D0002321786088032244
:1025700041E0A01D00F04FFA054604F10A0000F00A
:102580004AFA814604F10E0000F045FA064604F1CD
:10259000120000F040FA07461948854204D021781D
:1025A00060882B46042226E02EB11648864202D8C7
:1025B000B6F5142F04D921786088334605221AE035
:1025C000114D4FF0000885F80080C5F81080FDF728
:1025D00015FF30B10520287000232178608806227D
:1025E00009E0C5E90378C5E9019601202870217842
:1025F000608843460022BDE8F04700F0E7B90000DC
:102600005054413200FF0500282100202DE9F041FF
:10261000304D0446294628780B69012803D02178DB
:1026200060880D2252E0A088072803D221786088B4
:1026300003224BE0A01D00F0EEF9668904F10C08BE
:10264000A6B1B6F5806F11D8A288B11D89B28A42B1
:102650000CD1AA68824209D3111AB14206D381076C
:1026600004D18119914203D2B20701D02B69DDE771
:102670002A69194B824217D118443246414607460F
:10268000FDF7EAFE48B9324641463846FDF7DAFE24
:1026900018B1286983192B6110E005202870217872
:1026A000608807222B6911E00CD991420AD8324682
:1026B00041461844FDF7C6FE20B12B692178608899
:1026C000002203E0217860882B690822BDE8F041F0
:1026D00000F07CB92821002000000A0870B51F4DC9
:1026E000044680882B6918B121786088032231E084
:1026F0002878012802D1A9688B4203D0217860880C
:10270000082227E01648FDF7D9FF0346E8680526AA
:10271000984204D02E702178608809221AE0A868B7
:10272000FDF728FE50B1281D07C8FDF799FF58B1E5
:102730002E7000232178608807220BE02E70002382
:10274000217860880A2205E00220287021786088BC
:10275000AB680022BDE8704000F038B928210020A5
:1027600000000A0830B504468088194D87B020B1B2
:102770002178608803222B6910E06846FDF73CFF52
:1027800080B103202870FDF783FE80B105202870FA
:10279000FDF7FCFE2178608800230C2200F016F97A
:1027A00007B030BD0023217860880B22F6E70420B3
:1027B0002870217860880022029B00F007F9FDF75D
:1027C000F7FE4FF47A70FEF71DFB00F08FFC00005F
:1027D000282100202DE9F843060045D02F4C4FF466
:1027E0007A752B46012269462D48FFF78DFC10B102
:1027F0000320BDE8F8839DF80000AA28F1D12070DD
:1028000064230122611C2648FFF77EFC0028E8D1E2
:1028100060785A28E5D12B460622A11C2048FFF7F4
:1028200073FC08BBE1783170A0887080E588B580C2
:102830001A4FA278143F012A02D001223B6905E019
:1028400040F20642954204D903223B6900F0BEF8EB
:102850000AE01249281D82B2083140F6B833894691
:102860000F48FFF751FC08B10120C2E7601908309A
:1028700000F0D1F88046A91DA01CFDF70CFF804593
:1028800004D03178708802223B69DFE725B12A46FF
:102890004946B01DFDF7C5FC0020AAE73C210020F9
:1028A000C0010020ADF5856D14212C48FDF7D2FC48
:1028B0002A4C00250DF20C402570FDF79DFE28B135
:1028C000DDF81004083001D1042020706846FFF7BD
:1028D00081FF0028FAD19DF80010092939D2DFE8DC
:1028E00001F038050A0E12161A222D00BDF802005A
:1028F0004FF4803312E06846FFF730FEE6E76846A3
:10290000FFF784FEE2E76846FFF7E8FEDEE7684689
:10291000FFF728FFDAE7BDF8020023695FF0000245
:1029200000F054F8D2E714210C48FDF793FC257011
:102930009DF80010BDF802000023EFE70023BDF86A
:1029400002001A4600F042F86420FEF75BFA00F03D
:10295000CDFBBDF802000E222369E1E7282100200B
:1029600070B51C4616460A2B01D9012070BD154DC5
:10297000AA222A705A226A700122AA70E870281DC1
:1029800000F098FB2146A81D00F094FB34B12EB155
:102990002246314605F10800FDF743FCA11DA81CA5
:1029A000FDF779FE01462819083000F087FB0C344A
:1029B000A2B2BDE870404FF47A7302490248FFF7B3
:1029C000FBBB00004E250020C00100203EB505469F
:1029D0008DF800100E488DF80120144600788DF80F
:1029E000020000208DF80300194601A800F066FBE4
:1029F0004FF4806102A800F05DFB34B181200A230E
:102A00006A462946FFF7ACFF3EBD8020F7E700008D
:102A1000282100207047C178006861F31F6070476B
:102A2000C10708D0054920F001000844B0F5142F73
:102A300001D2012070470020704700000040FFF7DE
:102A40007047A0F10050B0F5003F01D2012070475F
:102A50000020704710B5FEF749FC0649088808B108
:102A6000401E088004490888002801D0401E0880C4
:102A700010BD0000520000205400002030B593B07B
:102A800030216846FDF7E6FB14210CA8FDF7E2FBB8
:102A90001E480025016841F080510160006800F087
:102AA000805011901A48016841F48041016000682B
:102AB000022400F480401190012000900004019055
:102AC0008001CDE90640192008904FF4A870CDE9A7
:102AD000090404200B906846FEF7A8FD08B172B601
:102AE000FEE70CA90F2081E831004FF4A0500F90B1
:102AF0004FF48050109005210CA8FEF7ABFC002885
:102B000001D072B6FEE713B030BD0000403802407D
:102B1000007000400248016841F470010160704794
:102B200088ED00E0F0B50268274B284D284E294F6C
:102B3000294C4FF0804C984209D0604507D0A842FC
:102B400005D0B04203D0B84201D0A04204D122F057
:102B5000700E4A6842EA0E0298421BD0604519D0B6
:102B6000A84217D0B04215D0B84213D0A04211D01D
:102B70001A4DA8420ED01A4DA8420BD0194DA842AA
:102B800008D0194DA84205D0184DA84202D0184DC2
:102B9000A84203D122F44075CA682A434D6922F045
:102BA00080022A438D68C5620D688562984201D013
:102BB000A04201D109690163016841F0040101608B
:102BC000012141610260F0BD0000014000040040AD
:102BD00000080040000C004000040140004001409B
:102BE000004401400048014000180040001C004023
:102BF0000020004010B501F01F030121046A994034
:102C00008C430462016A9A401143016210BD10B501
:102C1000846B0121626A824205D12177C069F8B9CB
:102C200084F83E101CE0A26A824206D1022222777A
:102C3000C069A8B984F83F1012E0E26A824206D166
:102C400004222277C06958B984F8401008E0226B4A
:102C5000824205D108222277C06908B984F8411060
:102C60002046FFF7D5F80020207710BD10B5846B03
:102C7000616A814201D101200DE0A16A814201D146
:102C8000022008E0E16A814201D1042003E0216BC7
:102C9000814201D1082020772046FFF7BAF80020B2
:102CA000207710BD10B5846B0121626A824203D186
:102CB000217784F83E1019E0A26A824204D10220F2
:102CC000207784F83F1011E0E26A824204D10420A8
:102CD000207784F8401009E0226B824204D108205A
:102CE000207784F8411001E084F83D102046FEF77B
:102CF000BBFF0020207710BD10B5846842EA032294
:102D000024F47F440A432243826010BD826822F08B
:102D100070020A4342F0070181607047F0B5036A10
:102D2000026A22F00102026242688469124E24F0B3
:102D300073050C682C4323F002058B682B430D4D63
:102D4000A84201D0B04205D123F00807CB683B432D
:102D500023F00403A84201D0B04205D14D6922F40A
:102D6000407215438A692A4342608461496841631D
:102D70000362F0BD0000014000040140F0B5026AAA
:102D8000036A23F010030362436884690D6824F426
:102D9000E64444EA05248D6822F0200242EA051246
:102DA0000F4D104EA84201D0B04206D1CF6822F09C
:102DB000800242EA071222F04002A84201D0B0424B
:102DC00007D14D6923F4406343EA85038D6943EAE3
:102DD000850343608461496881630262F0BD00003D
:102DE0000000014000040140F0B5026A036A23F4C8
:102DF000807303624368C46922F4007224F073058F
:102E00000C68124E2C438D6842EA05220E4DA842F2
:102E100001D0B04206D1CF6822F4006242EA072214
:102E200022F48062A84201D0B04207D14D6923F458
:102E3000405343EA05138D6943EA05134360C461B7
:102E40004968C1630262F0BD000001400004014016
:102E500030B5046A026A22F4805202624268C36991
:102E60000D6823F4E64343EA05238D6824F40054F7
:102E700044EA0534084DA84202D0084DA84204D1C6
:102E80004D6922F4804242EA85124260C36149687A
:102E90000164046230BD00000000014000040140F4
:102EA00010B5036A046A24F001040462846924F002
:102EB000F00444EA021423F00A020A438461026225
:102EC00010BD10B5036A046A24F01004046284691A
:102ED00023F0A00324F4704444EA023243EA0111CF
:102EE0008261016210BD01680C3151E8002F22F4AB
:102EF000907241E80023002BF5D10168143151E8AC
:102F0000002F22F0010241E80023002BF5D1016BD4
:102F1000012909D101680C3151E8002F22F010027B
:102F200041E80023002BF5D1202180F84210002138
:102F30000163704770B5044600680169E26821F4D6
:102F40004051114301612169A068E2690843616948
:102F5000114308432168CA6849F20C639A4302434B
:102F6000CA6020684169A26921F44071114341613E
:102F700031492068884202D03049884202D1FEF7A8
:102F800013FB01E0FEF700FBE26900231921642531
:102F90003226B2F5004F626828D0A0FB0101930FE2
:102FA0009200FDF70DF90146B0FBF5F06FF0180245
:102FB000504301EB800006EB0010B0FBF5F000F091
:102FC000F002B1FBF5F002EB0012B1FBF5F06FF08F
:102FD0001803584301EB800006EB0010B0FBF5F03E
:102FE00000F00F0021681044886070BDA0FB010153
:102FF00092185B41FDF7E4F80146B0FBF5F00201E1
:10300000B1FBF5F06FF01803584301EB800006EBBD
:10301000C000B0FBF5F000F0F80002EB4002B1FB9D
:10302000F5F0584301EB800006EBC000B0FBF5F073
:1030300000F00700D6E70000001001400014014036
:103040002DE9F843984617460D460446089E24E0AD
:10305000701C22D0FEF744F9A0EB0800B0421AD849
:10306000CEB12068C168490717D5802D15D0402DF5
:1030700013D00168C94309070FD4016800254068CF
:1030800000902046FFF72FFF0820606484F840502E
:103090000120BDE8F8830320FBE72068006835EADB
:1030A000000004D00020B842D2D00020F1E7012077
:1030B000F9E7FEE70170090A4170704701700A0ADA
:1030C00042700A0C8270090EC17070470907090E20
:1030D000002804DB00F1E02080F80014704700F0C5
:1030E0000F0000F1E02080F8141D7047BFF34F8FF0
:1030F00005480168054A01F4E06111430160BFF32E
:103100004F8F00BFFDE700000CED00E00400FA0562
:1031100002E008C8121F08C1002AFAD170477047A0
:10312000002001E001C1121F002AFBD17047FEF709
:10313000E5F8FFF7A3FCFFF737F9FFF70FF9FFF703
:1031400083F9FFF7DDF90A20FDF75CFEFDF7CCF807
:10315000FEE7000610160006101600000000000032
:103160000000010203040607080900000000010234
:103170000304000094310008000000205800000003
:1031800010310008EC310008580000201035000014
:1031900020310008000000000000000000000000D6
:1031A000000000000100000000000000000000001E
:1031B00000000000010000001000000000000000FE
:1031C0000024F400FF000000FF000000FF00FFFFEC
:1031D000FF408180D8007F6A00FFFFFF000000D51C
:0C31E00000F901000000000000000000E9
:040000050800018965
:00000001FF
